:100000000C94A7000C949F040C94D0040C94C4008E
:100010000C94C4000C94C4000C94C4000C94C40050
:100020000C94C4000C94E9040C94C4000C94C40017
:100030000C94C4000C94C4000C94C4000C94C40030
:100040000C94C4000C94C4000C94C4000C94C40020
:100050000C94C40000407A10F35A00A0724E1809A4
:100060000010A5D4E80000E87648170000E40B541F
:10007000020000CA9A3B000000E1F50500008096EE
:100080009800000040420F000000A0860100000020
:10009000102700000000E8030000000064000000DA
:1000A00000000A00000000000100000000002C76A3
:1000B000D888DC674F0823DFC1DFAE59E1B1B796BE
:1000C000E5E3E453C63AE651997696E8E6C284261B
:1000D000EB898C9B62ED407C6FFCEFBC9C9F40F2F7
:1000E000BAA56FA5F490055A2AF75C936B6CF96773
:1000F0006DC11BFCE0E40D47FEF520E6B500D0ED38
:10010000902E0300943577050080841E080000209F
:100110004E0A000000C80C333333330F986E12833D
:100120001141EF8D2114893BE65516CFFEE6DB1811
:10013000D1844B381BF77C1D901DA4BBE4242032D6
:1001400084725E228100C9F124ECA1E53D271124CF
:100150001FBECFE5D8E0DEBFCDBF10E0A0E6B0E027
:10016000ECE0FAE102C005900D92AC3DB107D9F781
:1001700021E0ACEDB0E001C01D92A132B207E1F781
:100180000E9490050C94040D0C94000088BB82B36F
:100190008F7E82BB82B3806482BB8FE097E201973F
:1001A000F1F700C0000082B38F7B82BB8FE097E243
:1001B0000197F1F700C0000008958FEF87BB81B36E
:1001C000806781BB8FE097E20197F1F700C00000E4
:1001D00088E30E94C6008CE00E94C60086E00E9470
:1001E000C60081E00E94C6008FE097E20197F1F718
:1001F00000C00000089588BB82B3806182BB82B3D7
:10020000806482BB8FE097E20197F1F700C00000A5
:1002100082B38F7B82BB8FE097E20197F1F700C03A
:100220000000089581E00E94C60008950F931F9377
:10023000CF93DF938C01C0E0D0E0F801EC0FFD1FFD
:100240008081882321F00E94FB002196F6CFDF9168
:10025000CF911F910F910895CF93DF93EA018823E7
:1002600069F0813011F4605C09C0823011F4605F84
:1002700005C0833011F4605B01C060E0862F8068A8
:100280000E94C600CE010E941601DF91CF91089511
:1002900080E487B986E886B9089597B1907F8F701A
:1002A000892B87B986B1806486B93699FECF84B12F
:1002B00095B1089584EA86BF06B607FEFDCF08957E
:1002C00084E986BF06B604FCFDCF089583B984E8AF
:1002D00086BF06B607FEFDCF089584EC86BF06B63E
:1002E00007FEFDCF83B1089584E886BF06B607FEFA
:1002F000FDCF83B10895282F30E0359527953595AA
:1003000027953595279535952795220F922F990F8B
:10031000990F290F8F70820F08958F929F92AF923D
:10032000BF92CF92DF92EF92FF920F931F93CF93E2
:10033000DF934C015B016A01E9010E945A0180EDE3
:100340000E94660180E00E9466010E945A0181EDD0
:100350000E9466010E946D018F770E947B01F4016B
:1003600080830E946D010E947B01F50180830E94C1
:100370006D010E947B01F60180830E946D010E9445
:100380006D010E947B0188830E946D010E947B01A8
:10039000F80180830E9474010E947B0190E0F701C4
:1003A000918380830E946001DF91CF911F910F9113
:1003B000FF90EF90DF90CF90BF90AF909F908F9085
:1003C0000895EF92FF920F931F93CF93DF93CDB7D2
:1003D000DEB764970FB6F894DEBF0FBECDBF0F2E09
:1003E000FCEDEF2EF0E0FF2EF02D0EED10E02FEDE6
:1003F00030E040EE50E061EE70E082EE90E00E946E
:100400008D012091E2009091E1008091E0001F9227
:100410002F931F929F931F928F9384E690E09F9358
:100420008F938E010F5F1F4F1F930F930E94E8075A
:10043000A80160E082E00E942C019091DE00809192
:10044000DF002091DD002F932091DC002F931F927D
:100450009F931F928F9388E790E09F938F93075FFE
:100460001F4F1F930F930E94E807A80160E083E0ED
:100470000E942C010FB6F894DEBF0FBECDBF64966C
:100480000FB6F894DEBF0FBECDBFDF91CF911F91A5
:100490000F91FF90EF9008958BB780688BBF85B761
:1004A0008C6085BF81B3806881BB82B38F7782BB4C
:1004B0008BE791EE9DBD8CBD1FBC85E08EBD84E0B9
:1004C00089BF8BB780648BBF85B7816085BF789407
:1004D000089560911301709114018091150190911C
:1004E000160108958AE18A95F1F700C060916000D5
:1004F00070916100809162009091630020E030E093
:10050000A9010E942206882381F060910B0170915D
:100510000C0180910D0190910E0120E030E040E24D
:1005200051E40E944B07181624F482B38F7782BBE4
:1005300003C082B3806882BB8AE18A95F1F700C06C
:10054000089584B3846084BB60910B0170910C01A9
:1005500080910D0190910E0120E030E040E251E4E5
:100560000E944B0718167CF485B3846085BB2FEF7F
:1005700080E792E0215080409040E1F700C0000009
:1005800085B38B7F85BB0895CF92DF92EF92FF9268
:100590000F931F93CF93DF9300911B0110911C01C8
:1005A000C0911701D0911801C8018C1B9D0BBC0193
:1005B00022F466277727681B790B072E000C880B1F
:1005C000990B0E949B066B017C01BE010D2E000C55
:1005D000880B990B0E949B069B01AC01C701B601D9
:1005E0000E94270620E030E048EC52E40E945007C9
:1005F00060930B0170930C0180930D0190930E0199
:100600000C171D078CF420E030E040E251E40E941A
:100610004B0718164CF44FE850E060E083E00E946E
:100620002C010E94A10206C04CE850E060E083E08B
:100630000E942C01DF91CF911F910F91FF90EF90BD
:10064000DF90CF900895CF92DF92EF92FF92C0900B
:10065000F300D090F400E090F500F090F60020E078
:1006600030E040EB51E4C701B6010E9422061816A3
:100670006CF048E950E060E081E00E942C0148EA1B
:1006800050E060E081E00E942C0129C020E030E0D1
:1006900040E052E4C701B6010E944B0788236CF08A
:1006A00048E950E060E081E00E942C0143EB50E01B
:1006B00060E081E00E942C0112C08FE19EE401976E
:1006C000F1F700C0000048E950E060E081E00E94DE
:1006D0002C014DEB50E060E081E00E942C01FF9086
:1006E000EF90DF90CF9008950F931F9380E00E94CA
:1006F0004D01BC0180E090E00E94990620E030E0CE
:1007000040EA50E40E94500720E030E040E85AE31D
:100710000E94500720E030E048EC52E40E9450076D
:100720006093F3007093F4008093F5009093F600CB
:1007300003EE10E021E044E00E94BD074AEC50E0E7
:1007400060E080E00E942C01A80163E080E00E944C
:100750002C012FE788E391E0215080409040E1F7A1
:1007600000C000000E9423031F910F9108950F9372
:100770001F93CF93DF93CDB7DEB72A970FB6F894C8
:10078000DEBF0FBECDBF81E00E944D01BC0180E005
:1007900090E00E94990620E030E040EA50E40E9498
:1007A000500720E030EC4FE754E40E9427068E010A
:1007B0000F5F1F4F21E042E00E94BD074EEC50E06A
:1007C0006AE080E00E942C01A8016DE080E00E94B8
:1007D0002C012A960FB6F894DEBF0FBECDBFDF9175
:1007E000CF911F910F910895CF92DF92EF92FF92D8
:1007F0000F931F93CF93DF93CDB7DEB7C055D109C9
:100800000FB6F894DEBF0FBECDBF0E94720286E421
:1008100092E59A8389838DE390E09C838B830E9489
:1008200069028E010C5F1F4F22E044E00E94BD0769
:10083000AE014F5F5F4FFA0101900020E9F7319759
:100840008CE49FE2918380838DE690E093838283A2
:1008500060E080E00E942C017E0185E1E80EF11C41
:1008600085E0E2EDF0E0D70101900D928A95E1F785
:1008700060910F017091100180911101909112010E
:1008800007EF10E022E044E00E94BD07B801C70175
:100890000E94DD07F70101900020E9F731970F2E44
:1008A000FCE4CF2ED12CF02DD182C082A70160E0D4
:1008B00081E00E942C0185E0E7EDF0E0DE01DD96AD
:1008C00001900D928A95E1F7AE01435C5F4F60E0C5
:1008D00082E00E942C017E0189E2E80EF11C609109
:1008E00060007091610080916200909163008701C7
:1008F00022E045E00E94BD0761E071E0C7010E946F
:10090000DD07F70101900020E9F73197D182C0821D
:10091000A70164E082E00E942C010E94C402C05B37
:10092000DF4F0FB6F894DEBF0FBECDBFDF91CF9182
:100930001F910F91FF90EF90DF90CF9008951F923D
:100940000F920FB60F9211242F933F938F939F9383
:10095000F89480911D0190911E01019690931E01C3
:1009600080931D012091190130911A012F5F3F4F93
:1009700030931A0120931901C90199230CF40196AF
:1009800095958795909318018093170178949F917E
:100990008F913F912F910F900FBE0F901F90189540
:1009A0001F920F920FB60F9211248F939F93F8947A
:1009B00080911B0190911C01019690931C018093E2
:1009C0001B0178949F918F910F900FBE0F901F90F5
:1009D00018951F920F920FB60F9211248F929F922B
:1009E000AF92BF92CF92DF92EF92FF922F933F93FD
:1009F0004F935F936F937F938F939F93AF93BF9327
:100A0000EF93FF93F89460911D0170911E0177237D
:100A100014F46F5F7F4F7595679570932001609315
:100A20001F01072E000C880B990B0E949B0620E0EB
:100A300030E040EF50E40E94270620E030E040E73D
:100A400052E40E942706609313017093140180936F
:100A500015019093160120E030E040E752E40E9437
:100A600050076B017C019B01AC0160910F017091FB
:100A7000100180911101909112010E94B6056093BE
:100A80000F017093100180931101909312018090D7
:100A9000600090906100A0906200B0906300A5019A
:100AA0009401C701B6010E94220618167CF0A70126
:100AB0009601C501B4010E94B50560936000709372
:100AC0006100809362009093630008C01092600000
:100AD00010926100109262001092630010921E0149
:100AE00010921D018BE791EE9DBD8CBD7894FF9116
:100AF000EF91BF91AF919F918F917F916F915F9196
:100B00004F913F912F91FF90EF90DF90CF90BF904A
:100B1000AF909F908F900F900FBE0F901F901895E1
:100B20000E94DD000E9448010E944C020E94F403D2
:100B30002FEF89E698E1215080409040E1F700C016
:100B400000000E9412010E9474030E94B7030E94D9
:100B5000E1012FEF89E698E1215080409040E1F7D4
:100B600000C000000E941201E1CF5058BB27AA2705
:100B70000E94CD050C9411070E94030738F00E94D3
:100B80000A0720F039F49F3F19F426F40C9400076B
:100B90000EF4E095E7FB0C94FA06E92F0E94220779
:100BA00058F3BA17620773078407950720F079F4A2
:100BB000A6F50C9444070EF4E0950B2EBA2FA02D49
:100BC0000B01B90190010C01CA01A0011124FF27FA
:100BD000591B99F0593F50F4503E68F11A16F040F5
:100BE000A22F232F342F4427585FF3CF46953795F4
:100BF0002795A795F0405395C9F77EF41F16BA0BB9
:100C0000620B730B840BBAF09150A1F0FF0FBB1F66
:100C1000661F771F881FC2F70EC0BA0F621F731FAF
:100C2000841F48F4879577956795B795F7959E3F0C
:100C300008F0B0CF9395880F08F09927EE0F97959D
:100C4000879508950E94D60608F481E008950E94D1
:100C50003B060C9411070E940A0758F00E940307F4
:100C600040F029F45F3F29F00C94FA0651110C94DE
:100C700045070C9400070E94220768F39923B1F3FB
:100C8000552391F3951B550BBB27AA2762177307B2
:100C9000840738F09F5F5F4F220F331F441FAA1F46
:100CA000A9F335D00E2E3AF0E0E832D09150504002
:100CB000E695001CCAF72BD0FE2F29D0660F771FB0
:100CC000881FBB1F261737074807AB07B0E809F096
:100CD000BB0B802DBF01FF2793585F4F3AF09E3F1B
:100CE000510578F00C94FA060C9445075F3FE4F345
:100CF000983ED4F3869577956795B795F7959F5F5E
:100D0000C9F7880F911D9695879597F90895E1E0A9
:100D1000660F771F881FBB1F621773078407BA0708
:100D200020F0621B730B840BBA0BEE1F88F7E09563
:100D30000895E89409C097FB3EF4909580957095CE
:100D400061957F4F8F4F9F4F9923A9F0F92F96E917
:100D5000BB279395F695879577956795B795F1118C
:100D6000F8CFFAF4BB0F11F460FF1BC06F5F7F4F29
:100D70008F4F9F4F16C0882311F096E911C077233B
:100D800021F09EE8872F762F05C0662371F096E844
:100D9000862F70E060E02AF09A95660F771F881F13
:100DA000DAF7880F9695879597F90895990F0008B7
:100DB000550FAA0BE0E8FEEF16161706E807F9072D
:100DC000C0F012161306E407F50798F0621B730BC8
:100DD000840B950B39F40A2661F0232B242B252B49
:100DE00021F408950A2609F4A140A6958FEF811DEC
:100DF000811D089597F99F6780E870E060E008958D
:100E00009FEF80EC089500240A9416161706180622
:100E10000906089500240A941216130614060506FE
:100E20000895092E0394000C11F4882352F0BB0F8F
:100E300040F4BF2B11F460FF04C06F5F7F4F8F4FF2
:100E40009F4F089557FD9058440F551F59F05F3F2D
:100E500071F04795880F97FB991F61F09F3F79F0DC
:100E600087950895121613061406551FF2CF46955E
:100E7000F1DF08C0161617061806991FF1CF8695E0
:100E80007105610508940895E894BB2766277727C4
:100E9000CB0197F908950E94D60608F48FEF0895C4
:100EA0000E9463070C9411070E94030738F00E9408
:100EB0000A0720F0952311F00C94FA060C94000711
:100EC00011240C9445070E94220770F3959FC1F3EB
:100ED000950F50E0551F629FF001729FBB27F00DE8
:100EE000B11D639FAA27F00DB11DAA1F649F66273D
:100EF000B00DA11D661F829F2227B00DA11D621F8C
:100F0000739FB00DA11D621F839FA00D611D221F45
:100F1000749F3327A00D611D231F849F600D211D29
:100F2000822F762F6A2F11249F5750409AF0F1F0AC
:100F300088234AF0EE0FFF1FBB1F661F771F881F15
:100F400091505040A9F79E3F510580F00C94FA064D
:100F50000C9445075F3FE4F3983ED4F3869577956C
:100F60006795B795F795E7959F5FC1F7FE2B880FBB
:100F7000911D9695879597F90895EF920F931F937A
:100F8000CF93DF93E80147FD02C034E001C034E1B4
:100F9000042E000C550B57FF03C051954195510984
:100FA000E32E022F242FAE010E94EB09CE01DF9128
:100FB000CF911F910F91EF900895FB01DC010D90EF
:100FC0000020E9F7119701900D920020E1F70895B4
:100FD000AEE0B0E0EEEEF7E00C94DB0C0D891E897C
:100FE00086E08C831A8309838FEF9FE79E838D832E
:100FF000AE01475E5F4F6F89788DCE0101960E94EA
:101000000A08EF81F885E00FF11F10822E96E4E0C8
:101010000C94F70CABE0B0E0E0E1F8E00C94CD0C00
:101020006C017B018A01FC0117821682838181FF9A
:10103000CCC1CE0101963C01F6019381F70193FDED
:10104000859193FF81917F01882309F4BAC185328C
:1010500039F493FD859193FF81917F01853229F4C5
:10106000B60190E00E94330CE7CF912C212C312C5B
:10107000FFE1F315D8F08B3279F038F4803279F053
:101080008332A1F4232D20611DC08D3261F08033A5
:1010900069F4232D216016C0832D8260382EE32D44
:1010A000E4603E2E2AC0F32DF8601DC037FC2DC031
:1010B00020ED280F2A3040F08E32B9F436FC81C181
:1010C000232D2064322E19C036FE06C08AE0989E79
:1010D000200D1124922E11C0EAE02E9E200D112425
:1010E000222EF32DF0623F2E08C08C3621F4832D82
:1010F0008068382E02C0883641F4F70193FD85914F
:1011000093FF81917F018111B3CF982F9F7D9554DB
:10111000933028F40C5F1F4F9FE399830DC08336F3
:1011200031F0833771F0833509F059C021C0F801DF
:10113000808189830E5F1F4F88248394912C5301F3
:1011400013C02801F2E04F0E511CF801A080B180BD
:1011500036FE03C0692D70E002C06FEF7FEFC5015E
:101160000E94280C4C018201F32DFF773F2E16C000
:10117000280122E0420E511CF801A080B18036FE09
:1011800003C0692D70E002C06FEF7FEFC5010E94C0
:101190001D0C4C01F32DF0683F2E820133FC1BC067
:1011A000822D90E088169906B0F4B60180E290E0B6
:1011B0000E94330C2A94F4CFF50137FC859137FE59
:1011C00081915F01B60190E00E94330C21102A94B6
:1011D00021E0821A91088114910471F7E8C08436E5
:1011E00011F0893641F5F80137FE07C06081718141
:1011F000828193810C5F1F4F08C060817181072E2F
:10120000000C880B990B0E5F1F4FF32DFF763F2EBE
:1012100097FF09C090958095709561957F4F8F4F8E
:101220009F4FF0683F2E2AE030E0A3010E946F0C30
:10123000882E861845C0853731F4232D2F7EB22E97
:101240002AE030E025C0932D997FB92E8F36C1F06A
:1012500018F4883579F0B5C0803719F0883721F057
:10126000B0C0E92FE061BE2EB4FE0DC0FB2DF460CE
:10127000BF2E09C034FE0AC0292F2660B22E06C038
:1012800028E030E005C020E130E002C020E132E09B
:10129000F801B7FE07C060817181828193810C5F84
:1012A0001F4F06C06081718180E090E00E5F1F4F8C
:1012B000A3010E946F0C882E8618FB2DFF773F2E0E
:1012C00036FE0DC0232D2E7FA22E891458F434FE35
:1012D0000BC032FC09C0832D8E7EA82E05C0B82C11
:1012E000A32C03C0B82C01C0B92CA4FE0FC0FE0172
:1012F000E80DF11D8081803321F49A2D997EA92E6D
:1013000009C0A2FE06C0B394B39404C08A2D8678A7
:1013100009F0B394A3FC11C0A0FE06C0B21488F477
:10132000280C922C9B180EC0B21460F4B60180E217
:1013300090E00E94330CB394F7CFB21418F42B183A
:1013400002C0982C212CA4FE10C0B60180E390E0CE
:101350000E94330CA2FE17C0A1FC03C088E790E0F6
:1013600002C088E590E0B6010CC08A2D867859F05D
:10137000A1FE02C08BE201C080E2A7FC8DE2B601B3
:1013800090E00E94330C891438F4B60180E390E0B9
:101390000E94330C9A94F7CF8A94F301E80DF11D63
:1013A0008081B60190E00E94330C8110F5CF22209D
:1013B00009F442CEB60180E290E00E94330C2A94F8
:1013C000F6CFF6018681978102C08FEF9FEF2B96B3
:1013D000E2E10C94E90CA9E0B0E0E1EFF9E00C9453
:1013E000D30C6A01122FB02E2BE3201720F0FF241C
:1013F000F394F00E02C02CE3F22E0F2D27E0AE0185
:101400004F5F5F4F0E94450BBC014981842F89705B
:10141000813031F0E1FC06C0E0FE06C090E205C07C
:101420009DE203C09BE201C090E05E2D507143FF3E
:101430003CC0911102C083E001C084E0811718F420
:10144000212F281B01C020E051110BC0F601822F73
:1014500030E2882319F031938150FBCFC20ED11CAA
:1014600020E0992329F0D6019C93F60131966F0173
:10147000C6010396E2FE0AC03EE4D6013C9341E475
:1014800011964C93119712963C9306C03EE6F601D6
:10149000308341E641833283FC01322F40E2332323
:1014A00009F442C041933150FACF42FF44C0911138
:1014B00002C083E001C084E0811718F4212F281BAB
:1014C00001C020E051110BC0F601822F30E28823C9
:1014D00019F031938150FBCFC20ED11C20E099232B
:1014E00029F0D6019C93F60131966F01C60103964F
:1014F000E2FE0BC039E4D6013C933EE411963C93E6
:10150000119736E412963C9307C039E6F601308312
:101510003EE6318336E63283FC01322F40E233234C
:1015200019F041933150FBCFFC01E20FF11D108205
:101530008EEF9FEFA6C021E030E0911102C020E0C5
:1015400030E0161617061CF4FB01319602C0E1E0EC
:10155000F0E02E0F3F1FBB2021F0EB2DF0E0319685
:1015600002C0E0E0F0E02E0F3F1FE12FF0E02E1769
:101570003F071CF4121B212F01C020E08E2D887123
:1015800059F4F601822F30E2882319F0319381500B
:10159000FBCFC20ED11C20E0992329F0D6019C93E9
:1015A000F60131966F0151110BC0F601822F90E3C5
:1015B000882319F091938150FBCFC20ED11C20E0FB
:1015C0000F2D060F9A81342F307144FF03C09133E1
:1015D00009F40150101624F4093018F008E001C095
:1015E00001E0AB0177FF02C040E050E0FB01E41BEB
:1015F000F50BA1E0B0E0AC0FBD1FEA0FFB1F8EE2C0
:10160000A82E4B01801A91080B2D10E01195019521
:1016100011094F3FBFEF5B0721F4D601AC92119641
:101620006D01641775072CF08416950614F48181FA
:1016300001C080E3415051093196D60111967D01D8
:101640004017510724F0D6018C936701E2CF64174D
:10165000750739F4963320F4953319F4311101C02C
:1016600081E3F6018083F701822F90E2882319F04D
:1016700091938150FBCFF701E20FF11D108280E0C2
:1016800090E02996ECE00C94EF0C283008F027E06D
:101690003327DA01990F311D87FD916000966105AE
:1016A000710539F432602E5F3D9330E32A95E1F7FE
:1016B00008959F3F30F080387105610509F03C5F67
:1016C0003C5F3D93913008F08068911DDF93CF938C
:1016D0001F930F93FF92EF92192F987F9695E92F02
:1016E00096959695E90FFF27E255FF4F99273327E7
:1016F000EE24FF24A701E70105900894079428F43D
:10170000360FE71EF81E491F511D660F771F881FF1
:10171000991F0694A1F70590079428F4E70EF81E88
:10172000491F561FC11D770F881F991F661F0694FA
:10173000A1F70590079428F4F80E491F561FC71FFC
:10174000D11D880F991F661F771F0694A1F705907A
:10175000079420F4490F561FC71FD81F990F661F03
:10176000771F881F0694A9F784911095177041F090
:10177000D695C79557954795F794E7941A95C1F76D
:10178000E4E5F0E068941590159135916591959197
:1017900005907FE27395E118F10A430B560BC90BD4
:1017A000D009C0F7E10CF11E431F561FC91FD01D01
:1017B0007EF4703311F48A95E6CFE894015030F04E
:1017C000080F0AF40027021708F4202F2395022F90
:1017D0007A3328F079E37D932A95E9F710C07D9359
:1017E0002A9589F6069497956795379517951794D6
:1017F000E118F10A430B560BC90BD00998F0239559
:101800007E9173957A3308F070E37C932013B8F7D8
:101810007E9170617D9330F0839571E37D9370E3E9
:101820002A95E1F71124EF90FF900F911F91CF912E
:10183000DF91992787FD90950895FC0105906150EF
:1018400070400110D8F7809590958E0F9F1F0895D6
:10185000FC016150704001900110D8F7809590957F
:101860008E0F9F1F08950F931F93CF93DF93FB015C
:10187000238121FD03C08FEF9FEF2CC022FF16C0F4
:1018800046815781248135814217530744F4A08152
:10189000B1819D012F5F3F4F318320838C9326813F
:1018A00037812F5F3F4F3783268314C08B01EC01B4
:1018B000FB010084F185E02D0995892BE1F6D80123
:1018C00016968D919C911797019617969C938E93DF
:1018D0001697CE01DF91CF911F910F910895FA01D4
:1018E000AA27283051F1203181F1E8946F936E7F5F
:1018F0006E5F7F4F8F4F9F4FAF4FB1E03ED0B4E050
:101900003CD0670F781F891F9A1FA11D680F791F90
:101910008A1F911DA11D6A0F711D811D911DA11DA1
:1019200020D009F468943F912AE0269F11243019B1
:10193000305D3193DEF6CF010895462F4770405D4C
:101940004193B3E00FD0C9F7F6CF462F4F70405DFB
:101950004A3318F0495D31FD4052419302D0A9F756
:10196000EACFB4E0A6959795879577956795BA9550
:10197000C9F700976105710508959B01AC010A2E16
:1019800006945795479537952795BA95C9F7620FED
:10199000731F841F951FA01D08952F923F924F9291
:1019A0005F926F927F928F929F92AF92BF92CF92EF
:1019B000DF92EF92FF920F931F93CF93DF93CDB7F8
:1019C000DEB7CA1BDB0B0FB6F894DEBF0FBECDBF70
:1019D00009942A88398848885F846E847D848C8441
:1019E0009B84AA84B984C884DF80EE80FD800C814A
:1019F0001B81AA81B981CE0FD11D0FB6F894DEBF2D
:0C1A00000FBECDBFED010895F894FFCF9C
:101A0C0000007A4454696D653A253032643A2530C9
:101A1C0032643A2530326400446174653A253032C0
:101A2C00642F253032642F25303264004E6F204CE9
:101A3C0065616B616765210020202020202020201B
:101A4C002020202020202000576174657220436FD5
:101A5C006C6400576174657220486F740057617430
:101A6C006572204E6F726D616C0054703A00546454
:0C1A7C003A00566F6C3D0042414C3D00AA
:00000001FF
